{
  "contractName": "UserStorage",
  "abi": [
    {
      "constant": false,
      "inputs": [
        {
          "name": "_username",
          "type": "bytes32"
        }
      ],
      "name": "createUser",
      "outputs": [
        {
          "name": "",
          "type": "uint256"
        }
      ],
      "payable": false,
      "stateMutability": "nonpayable",
      "type": "function"
    }
  ],
  "bytecode": "0x60806040526000600155348015601457600080fd5b50610101806100246000396000f3fe6080604052348015600f57600080fd5b506004361060285760003560e01c8063abf7bfd814602d575b600080fd5b605660048036036020811015604157600080fd5b8101908080359060200190929190505050606c565b6040518082815260200191505060405180910390f35b6000600160008154809291906001019190505550604051806040016040528060015481526020018381525060008060015481526020019081526020016000206000820151816000015560208201518160010155905050600154905091905056fea265627a7a72305820df357c36f9a7206defe2f747183cb2782c688f4c1fdf1f064a510cb1714a932a64736f6c634300050a0032",
  "source": "// SPDX-License-Identifier: GPL-3.0-or-later\npragma solidity >=0.5.10 <0.9.0;\n\ncontract UserStorage {\n\n  mapping(uint => Profile) profiles;\n\n  struct Profile {\n    uint id;\n    bytes32 username;\n  }\n\n  uint latestUserId = 0;\n  \n  function createUser(bytes32 _username) public returns(uint) {\n    latestUserId++;  \n\n    profiles[latestUserId] = Profile(latestUserId, _username);\n\n    return latestUserId;\n  }\n\n}",
  "sourcePath": "/Users/kara/Desktop/solidity/tweether/contracts/users/UserStorage.sol",
  "compiler": {
    "name": "solc",
    "version": "0.5.10+commit.5a6ea5b1.Emscripten.clang"
  },
  "schemaVersion": "3.4.3",
  "updatedAt": "2021-10-25T13:13:42.817Z",
  "devdoc": {
    "methods": {}
  },
  "userdoc": {
    "methods": {}
  }
}